:100000000C942A000C9447000C9447000C94470071
:100010000C9447000C9447000C949E000C944900EB
:100020000C9447000C9447000C9447000C940A026F
:100030000C9447000C9447000C9447000C94470024
:100040000C9447000C9447000C9447000C94470014
:100050000C94470011241FBECFE5D4E0DEBFCDBF16
:1000600010E0A0E6B0E0E6E6F6E002C005900D92F2
:10007000A438B107D9F711E0A4E8B0E001C01D929F
:10008000AC34B107E1F70E9426030C9431030C94C1
:1000900000001F920F920FB60F9211242F933F93DF
:1000A0004F938F939F93EF93FF934BB3E091C500D2
:1000B000F0E07096EE0FFF1F80918000909181001C
:1000C000E80FF91F20813181209524232BBB25B314
:1000D000E091C500F0E07096EE0FFF1FE80FF91FEA
:1000E0008081918180959095292325BB8091C500C1
:1000F0008F5F8093C5009091C50080918400981710
:1001000011F41092C5008091C50090E0880F991FEE
:10011000E0918000F0918100E80FF91F80819181CA
:1001200099BD88BDFF91EF919F918F914F913F9124
:100130002F910F900FBE0F901F9018951F920F9246
:100140000FB60F9211248F939F938FEF8BBB85BBBC
:100150008091C700882371F0809182009091830084
:1001600090938100809380008091C90080938400E7
:100170001092C7009F918F910F900FBE0F901F900C
:100180001895CF92DF92EF92FF920F931F93CF9328
:10019000DF93809180009091810020E08B3C92075A
:1001A00019F485E890E002C08BEC90E09093830016
:1001B0008093820060918200709183002FEF3FEF67
:1001C00080E090E0FF24F1E0CF2ED12CE22E40E041
:1001D00050E0DC01AA0FBB1F8D01005A1F4F13C056
:1001E000F801C081D181F901E41BF50BEE0FFF1F6F
:1001F000E05AFF4F0190F081E02D4F5F5F4FCE1727
:10020000DF0719F1EA94E7FEEBCF6FC0488159810F
:10021000A02FB0E0AA0FBB1FA05ABF4F0D90BC91FA
:10022000A02D4A175B0769F4A081B181A601002EB9
:1002300002C0440F551F0A94E2F74A2B5B2B5183EF
:1002400040830F5F003110F3F39401962F5F3F4F0F
:100250008031910509F0BACF80918200909183009E
:10026000FC0120E032C0E22EE3949F01205E3F4F6C
:10027000CE2C27C0AC2DB0E0ED01CC0FDD1FC80F98
:10028000D91F688179814081518164177507C0F455
:10029000488159815096AA0FBB1FA80FB91F0D9115
:1002A0001C9111976081718179836883E90168816C
:1002B000798111967C936E935183408319830883CF
:1002C000C394CF14B8F232962E2D2F1560F281E030
:1002D0008093C700F092C900DF91CF911F910F91D9
:1002E000FF90EF90DF90CF900895EF2DF0E0EF01B9
:1002F000CC0FDD1FC60FD71FA05ABF4F4D915C9189
:100300001197598348837096EE0FFF1FE60FF71F72
:10031000A601082E02C0440F551F0A94E2F751832C
:100320004083082F0F5FEC01CC0FDD1FC05ADF4F59
:1003300089CF8FEF8ABB8BBB84BB85BB1DBC1CBC2C
:100340008FE39CE99BBD8ABDE0918000F091810024
:100350008081918199BD88BD8EB588608EBD89B739
:10036000886189BF8EB582608EBD0E94C1000895EC
:100370005D9BFECF8CB90895882319F488B3807FE4
:100380001BC0813031F488B38A6088BB88B38A7F10
:1003900013C0823031F488B3857F88BB88B3856011
:1003A0000BC0833021F4C39A88B3887F05C08430A2
:1003B00021F4C19A88B3827F88BB81E00E94B80192
:1003C000089510BC80E189B980B5866880BD8AB186
:1003D00088698AB908950F931F93CF93DF93C0E084
:1003E000D0E08E01000F111F005A1F4FF8018081CD
:1003F0009181892F0E94B801F801808191810E942A
:10040000B8012196C031D10561F7DF91CF911F91DD
:100410000F9108951F920F920FB60F9211248F9390
:100420009F93EF93FF939CB18091C800E82FF0E079
:10043000E55FFE4F90838F5F8093C8008091C80076
:10044000803411F41092C8009091C8008091C600C9
:10045000981728F08091C8009091C60005C080913F
:10046000C8009091C600805C891B8093CA00FF91F0
:10047000EF919F918F910F900FBE0F901F90189545
:1004800080E090E02091C600E22FF0E0E55FFE4FB3
:10049000308137BD2F5F2093C6002091C6002034E5
:1004A00011F41092C6002091C600E22FF0E0E55F43
:1004B000FE4F308136BD2F5F2093C6002091C600CD
:1004C000203411F41092C60026B537B5FC01EE0FAA
:1004D000FF1FE05AFF4F3183208301968031910541
:1004E00089F69091C8008091C600981728F08091F5
:1004F000C8009091C60005C08091C8009091C600C8
:10050000805C891B8093CA0010924B018091C600C9
:10051000E82FF0E0E55FFE4F90818F5F8093C6008B
:100520009B33D1F08091C600803411F41092C60044
:100530009091C8008091C600981728F08091C8005B
:100540009091C60005C08091C8009091C600805C63
:10055000891B8093CA0008958091C600803411F4ED
:100560001092C6009091C8008091C600981728F09C
:100570008091C8009091C60005C08091C8009091FC
:10058000C600805C891B8093CA000E94C100089548
:1005900057C080914B01813039F48091CA0081327B
:1005A00018F00E9440024CC080914B01882309F052
:1005B00047C09091C600E92FF0E0E55FFE4F8081D3
:1005C0009F5F9093C6009091C600903411F41092F2
:1005D000C6002091C8009091C600291728F090917C
:1005E000C8002091C60005C09091C8002091C600A7
:1005F000905C921B9093CA008636A1F0873638F43F
:100600008D3461F0823681F08F33D1F417C08C368F
:1006100069F0823769F0883699F40CC081E08093E4
:100620004B010EC081E007C082E005C083E003C03B
:1006300084E001C080E00E94BC0102C00E94EB0186
:100640008091CA00882309F0A4CF08950E949901DF
:100650000E94E10187B38F6087BB78940E94C80233
:06066000FDCFF894FFCF6E
:10066600D007D007D007D007D007D007D007D007CC
:10067600D007D007D007D007D007D007D007D007BC
:04068600CB00850020
:00000001FF
